{
  "_format": "hh-sol-artifact-1",
  "contractName": "IssueTracker",
  "sourceName": "contracts/IsuueTracker.sol",
  "abi": [
    {
      "anonymous": false,
      "inputs": [
        {
          "indexed": false,
          "internalType": "string",
          "name": "title",
          "type": "string"
        },
        {
          "indexed": false,
          "internalType": "string",
          "name": "description",
          "type": "string"
        },
        {
          "indexed": false,
          "internalType": "string",
          "name": "owner",
          "type": "string"
        }
      ],
      "name": "IssueCreated",
      "type": "event"
    },
    {
      "inputs": [
        {
          "internalType": "string",
          "name": "id",
          "type": "string"
        },
        {
          "internalType": "string",
          "name": "_title",
          "type": "string"
        },
        {
          "internalType": "string",
          "name": "_description",
          "type": "string"
        },
        {
          "internalType": "string",
          "name": "_owner",
          "type": "string"
        }
      ],
      "name": "createIssue",
      "outputs": [],
      "stateMutability": "nonpayable",
      "type": "function"
    },
    {
      "inputs": [
        {
          "internalType": "string",
          "name": "",
          "type": "string"
        }
      ],
      "name": "issues",
      "outputs": [
        {
          "internalType": "string",
          "name": "title",
          "type": "string"
        },
        {
          "internalType": "string",
          "name": "description",
          "type": "string"
        },
        {
          "internalType": "string",
          "name": "owner",
          "type": "string"
        }
      ],
      "stateMutability": "view",
      "type": "function"
    }
  ],
  "bytecode": "0x608060405234801561001057600080fd5b506109d6806100206000396000f3fe608060405234801561001057600080fd5b50600436106100365760003560e01c80632d6fafc11461003b578063e38ba43614610057575b600080fd5b6100556004803603810190610050919061047a565b610089565b005b610071600480360381019061006c9190610551565b610148565b60405161008093929190610619565b60405180910390f35b6040518060600160405280848152602001838152602001828152506000856040516100b491906106a1565b908152602001604051809103902060008201518160000190816100d791906108ce565b5060208201518160010190816100ed91906108ce565b50604082015181600201908161010391906108ce565b509050507ff669ddfda71d3498669b3b9cca026fc283568b9a3397b46e78882b126c81c16683838360405161013a93929190610619565b60405180910390a150505050565b600081805160208101820180518482526020830160208501208183528095505050505050600091509050806000018054610181906106e7565b80601f01602080910402602001604051908101604052809291908181526020018280546101ad906106e7565b80156101fa5780601f106101cf576101008083540402835291602001916101fa565b820191906000526020600020905b8154815290600101906020018083116101dd57829003601f168201915b50505050509080600101805461020f906106e7565b80601f016020809104026020016040519081016040528092919081815260200182805461023b906106e7565b80156102885780601f1061025d57610100808354040283529160200191610288565b820191906000526020600020905b81548152906001019060200180831161026b57829003601f168201915b50505050509080600201805461029d906106e7565b80601f01602080910402602001604051908101604052809291908181526020018280546102c9906106e7565b80156103165780601f106102eb57610100808354040283529160200191610316565b820191906000526020600020905b8154815290600101906020018083116102f957829003601f168201915b5050505050905083565b6000604051905090565b600080fd5b600080fd5b600080fd5b600080fd5b6000601f19601f8301169050919050565b7f4e487b7100000000000000000000000000000000000000000000000000000000600052604160045260246000fd5b6103878261033e565b810181811067ffffffffffffffff821117156103a6576103a561034f565b5b80604052505050565b60006103b9610320565b90506103c5828261037e565b919050565b600067ffffffffffffffff8211156103e5576103e461034f565b5b6103ee8261033e565b9050602081019050919050565b82818337600083830152505050565b600061041d610418846103ca565b6103af565b90508281526020810184848401111561043957610438610339565b5b6104448482856103fb565b509392505050565b600082601f83011261046157610460610334565b5b813561047184826020860161040a565b91505092915050565b600080600080608085870312156104945761049361032a565b5b600085013567ffffffffffffffff8111156104b2576104b161032f565b5b6104be8782880161044c565b945050602085013567ffffffffffffffff8111156104df576104de61032f565b5b6104eb8782880161044c565b935050604085013567ffffffffffffffff81111561050c5761050b61032f565b5b6105188782880161044c565b925050606085013567ffffffffffffffff8111156105395761053861032f565b5b6105458782880161044c565b91505092959194509250565b6000602082840312156105675761056661032a565b5b600082013567ffffffffffffffff8111156105855761058461032f565b5b6105918482850161044c565b91505092915050565b600081519050919050565b600082825260208201905092915050565b60005b838110156105d45780820151818401526020810190506105b9565b60008484015250505050565b60006105eb8261059a565b6105f581856105a5565b93506106058185602086016105b6565b61060e8161033e565b840191505092915050565b6000606082019050818103600083015261063381866105e0565b9050818103602083015261064781856105e0565b9050818103604083015261065b81846105e0565b9050949350505050565b600081905092915050565b600061067b8261059a565b6106858185610665565b93506106958185602086016105b6565b80840191505092915050565b60006106ad8284610670565b915081905092915050565b7f4e487b7100000000000000000000000000000000000000000000000000000000600052602260045260246000fd5b600060028204905060018216806106ff57607f821691505b602082108103610712576107116106b8565b5b50919050565b60008190508160005260206000209050919050565b60006020601f8301049050919050565b600082821b905092915050565b60006008830261077a7fffffffffffffffffffffffffffffffffffffffffffffffffffffffffffffffff8261073d565b610784868361073d565b95508019841693508086168417925050509392505050565b6000819050919050565b6000819050919050565b60006107cb6107c66107c18461079c565b6107a6565b61079c565b9050919050565b6000819050919050565b6107e5836107b0565b6107f96107f1826107d2565b84845461074a565b825550505050565b600090565b61080e610801565b6108198184846107dc565b505050565b5b8181101561083d57610832600082610806565b60018101905061081f565b5050565b601f8211156108825761085381610718565b61085c8461072d565b8101602085101561086b578190505b61087f6108778561072d565b83018261081e565b50505b505050565b600082821c905092915050565b60006108a560001984600802610887565b1980831691505092915050565b60006108be8383610894565b9150826002028217905092915050565b6108d78261059a565b67ffffffffffffffff8111156108f0576108ef61034f565b5b6108fa82546106e7565b610905828285610841565b600060209050601f8311600181146109385760008415610926578287015190505b61093085826108b2565b865550610998565b601f19841661094686610718565b60005b8281101561096e57848901518255600182019150602085019450602081019050610949565b8683101561098b5784890151610987601f891682610894565b8355505b6001600288020188555050505b50505050505056fea2646970667358221220e05c940957102fb53c3c5438d1064390c3ab41ae3983535306bf767c4c12c8b664736f6c63430008180033",
  "linkReferences": {},
  "deployedLinkReferences": {}
}